:080000000000022888014B2FCB
:100E9600F001F101F201F301F401F501F601F701A8
:100EA600A001A101A201A30120009A2F20000C128B
:100EB6008C120230FA004530F900A930F800F80B20
:100EC600622FF90B622FFA0B622F692F20000C1686
:100ED6008C120230FA004530F900A930F800F80B00
:100EE600722FF90B722FFA0B722F792F20000C122A
:100EF6008C120230FA004530F900A930F800F80BE0
:100F0600822FF90B822FFA0B822F892F20000C12C9
:100F16008C160230FA004530F900A930F800F80BBB
:100F2600922FF90B922FFA0B922F992F080021007E
:100F36008C0123008C01383021009E007D309D00FD
:100F46002930FB00FB0BA52F6400A92F21009D145F
:100F5600AC2F9D18AF2FB02FAC2FB12F1C08FB0064
:100F6600FC017B08F2007C08F3001B08FB00FC0177
:100F76007B08F4007C08F5007308FC007208FB008F
:100F86000230FB35FC0D890BC42F7B08F6007C086C
:100F9600F7007508FC007408FB000630FF007C0DA6
:100FA600FC0CFB0CFF0BD22F7B082000A2007C0858
:100FB600A30022087607A0002308773DA100210898
:100FC600F101F1072008F001F007EF2FEF2FEF2FC7
:100FD600873159278731EF2F7108803AFF00873014
:100FE6007F02031DF82F093070020318FB2FFC2F18
:0A0FF600EB2FA92FA92FA92F022825
:00000001FF
