:0600000001288801B72F62
:100F6E002000B92F20008C010C3021008C002300B2
:100F7E008C01C62FC62F8731CF278731C62F200071
:100F8E000C19CA2FCB2FC22FC62FC62FC62F012842
:100F9E0020000C128C121130F1003A30F000F00BE0
:100FAE00D62FF10BD62F640020000C168C121130A8
:100FBE00F1003A30F000F00BE22FF10BE22F64005B
:100FCE0020000C128C121130F1003A30F000F00BB0
:100FDE00EE2FF10BEE2F640020000C128C16113048
:100FEE00F1003A30F000F00BFA2FF10BFA2F6400FB
:020FFE000800E9
:00000001FF
